{
	"data": {
		"bytecode": {
			"linkReferences": {},
			"object": "6080604052348015600e575f5ffd5b506110c48061001c5f395ff3fe608060405234801561000f575f5ffd5b5060043610610060575f3560e01c806315dacbea146100645780633a04033c146100945780634753b51b146100b0578063618dc65e146100cc5780637f6314d0146100fd5780639b23d3d914610119575b5f5ffd5b61007e600480360381019061007991906109b4565b610149565b60405161008b9190610a33565b60405180910390f35b6100ae60048036038101906100a99190610a76565b610261565b005b6100ca60048036038101906100c59190610ada565b6102bd565b005b6100e660048036038101906100e19190610c54565b610315565b6040516100f4929190610d26565b60405180910390f35b61011760048036038101906101129190610ada565b61046a565b005b610133600480360381019061012e91906109b4565b6104c2565b6040516101409190610a33565b60405180910390f35b5f5f5f61016773ffffffffffffffffffffffffffffffffffffffff166315dacbea60e01b888888886040516024016101849493929190610d72565b604051602081830303815290604052907bffffffffffffffffffffffffffffffffffffffffffffffffffffffff19166020820180517bffffffffffffffffffffffffffffffffffffffffffffffffffffffff83818316178352505050506040516101ee9190610def565b5f604051808303815f865af19150503d805f8114610227576040519150601f19603f3d011682016040523d82523d5f602084013e61022c565b606091505b50915091508161023d576015610252565b808060200190518101906102519190610e3b565b5b60030b92505050949350505050565b5f61026e858585856105da565b9050601660030b81146102b6576040517f08c379a00000000000000000000000000000000000000000000000000000000081526004016102ad90610ec0565b60405180910390fd5b5050505050565b5f6102c883836106f2565b9050601660030b8114610310576040517f08c379a000000000000000000000000000000000000000000000000000000000815260040161030790610f28565b60405180910390fd5b505050565b5f60605f5f61016773ffffffffffffffffffffffffffffffffffffffff1663618dc65e60e01b878760405160240161034e929190610f46565b604051602081830303815290604052907bffffffffffffffffffffffffffffffffffffffffffffffffffffffff19166020820180517bffffffffffffffffffffffffffffffffffffffffffffffffffffffff83818316178352505050506040516103b89190610def565b5f604051808303815f865af19150503d805f81146103f1576040519150601f19603f3d011682016040523d82523d5f602084013e6103f6565b606091505b50915091507f4af4780e06fe8cb9df64b0794fa6f01399af979175bb988e35e0e57e594567bc828260405161042c929190610f8e565b60405180910390a18161044f57601560405180602001604052805f815250610453565b6016815b8160030b9150809450819550505050509250929050565b5f6104758383610804565b9050601660030b81146104bd576040517f08c379a00000000000000000000000000000000000000000000000000000000081526004016104b490611006565b60405180910390fd5b505050565b5f5f5f61016773ffffffffffffffffffffffffffffffffffffffff16639b23d3d960e01b888888886040516024016104fd9493929190610d72565b604051602081830303815290604052907bffffffffffffffffffffffffffffffffffffffffffffffffffffffff19166020820180517bffffffffffffffffffffffffffffffffffffffffffffffffffffffff83818316178352505050506040516105679190610def565b5f604051808303815f865af19150503d805f81146105a0576040519150601f19603f3d011682016040523d82523d5f602084013e6105a5565b606091505b5091509150816105b65760156105cb565b808060200190518101906105ca9190610e3b565b5b60030b92505050949350505050565b5f5f5f61016773ffffffffffffffffffffffffffffffffffffffff1663eca3691760e01b888888886040516024016106159493929190611024565b604051602081830303815290604052907bffffffffffffffffffffffffffffffffffffffffffffffffffffffff19166020820180517bffffffffffffffffffffffffffffffffffffffffffffffffffffffff838183161783525050505060405161067f9190610def565b5f604051808303815f865af19150503d805f81146106b8576040519150601f19603f3d011682016040523d82523d5f602084013e6106bd565b606091505b5091509150816106ce5760156106e3565b808060200190518101906106e29190610e3b565b5b60030b92505050949350505050565b5f5f5f61016773ffffffffffffffffffffffffffffffffffffffff1663099794e860e01b8686604051602401610729929190611067565b604051602081830303815290604052907bffffffffffffffffffffffffffffffffffffffffffffffffffffffff19166020820180517bffffffffffffffffffffffffffffffffffffffffffffffffffffffff83818316178352505050506040516107939190610def565b5f604051808303815f865af19150503d805f81146107cc576040519150601f19603f3d011682016040523d82523d5f602084013e6107d1565b606091505b5091509150816107e25760156107f7565b808060200190518101906107f69190610e3b565b5b60030b9250505092915050565b5f5f5f61016773ffffffffffffffffffffffffffffffffffffffff166349146bde60e01b868660405160240161083b929190611067565b604051602081830303815290604052907bffffffffffffffffffffffffffffffffffffffffffffffffffffffff19166020820180517bffffffffffffffffffffffffffffffffffffffffffffffffffffffff83818316178352505050506040516108a59190610def565b5f604051808303815f865af19150503d805f81146108de576040519150601f19603f3d011682016040523d82523d5f602084013e6108e3565b606091505b5091509150816108f4576015610909565b808060200190518101906109089190610e3b565b5b60030b9250505092915050565b5f604051905090565b5f5ffd5b5f5ffd5b5f73ffffffffffffffffffffffffffffffffffffffff82169050919050565b5f61095082610927565b9050919050565b61096081610946565b811461096a575f5ffd5b50565b5f8135905061097b81610957565b92915050565b5f819050919050565b61099381610981565b811461099d575f5ffd5b50565b5f813590506109ae8161098a565b92915050565b5f5f5f5f608085870312156109cc576109cb61091f565b5b5f6109d98782880161096d565b94505060206109ea8782880161096d565b93505060406109fb8782880161096d565b9250506060610a0c878288016109a0565b91505092959194509250565b5f8160070b9050919050565b610a2d81610a18565b82525050565b5f602082019050610a465f830184610a24565b92915050565b610a5581610a18565b8114610a5f575f5ffd5b50565b5f81359050610a7081610a4c565b92915050565b5f5f5f5f60808587031215610a8e57610a8d61091f565b5b5f610a9b8782880161096d565b9450506020610aac8782880161096d565b9350506040610abd8782880161096d565b9250506060610ace87828801610a62565b91505092959194509250565b5f5f60408385031215610af057610aef61091f565b5b5f610afd8582860161096d565b9250506020610b0e8582860161096d565b9150509250929050565b5f5ffd5b5f5ffd5b5f601f19601f8301169050919050565b7f4e487b71000000000000000000000000000000000000000000000000000000005f52604160045260245ffd5b610b6682610b20565b810181811067ffffffffffffffff82111715610b8557610b84610b30565b5b80604052505050565b5f610b97610916565b9050610ba38282610b5d565b919050565b5f67ffffffffffffffff821115610bc257610bc1610b30565b5b610bcb82610b20565b9050602081019050919050565b828183375f83830152505050565b5f610bf8610bf384610ba8565b610b8e565b905082815260208101848484011115610c1457610c13610b1c565b5b610c1f848285610bd8565b509392505050565b5f82601f830112610c3b57610c3a610b18565b5b8135610c4b848260208601610be6565b91505092915050565b5f5f60408385031215610c6a57610c6961091f565b5b5f610c778582860161096d565b925050602083013567ffffffffffffffff811115610c9857610c97610923565b5b610ca485828601610c27565b9150509250929050565b5f819050919050565b610cc081610cae565b82525050565b5f81519050919050565b5f82825260208201905092915050565b8281835e5f83830152505050565b5f610cf882610cc6565b610d028185610cd0565b9350610d12818560208601610ce0565b610d1b81610b20565b840191505092915050565b5f604082019050610d395f830185610cb7565b8181036020830152610d4b8184610cee565b90509392505050565b610d5d81610946565b82525050565b610d6c81610981565b82525050565b5f608082019050610d855f830187610d54565b610d926020830186610d54565b610d9f6040830185610d54565b610dac6060830184610d63565b95945050505050565b5f81905092915050565b5f610dc982610cc6565b610dd38185610db5565b9350610de3818560208601610ce0565b80840191505092915050565b5f610dfa8284610dbf565b915081905092915050565b5f8160030b9050919050565b610e1a81610e05565b8114610e24575f5ffd5b50565b5f81519050610e3581610e11565b92915050565b5f60208284031215610e5057610e4f61091f565b5b5f610e5d84828501610e27565b91505092915050565b5f82825260208201905092915050565b7f5472616e73666572204661696c656400000000000000000000000000000000005f82015250565b5f610eaa600f83610e66565b9150610eb582610e76565b602082019050919050565b5f6020820190508181035f830152610ed781610e9e565b9050919050565b7f446973736f6369617465204661696c65640000000000000000000000000000005f82015250565b5f610f12601183610e66565b9150610f1d82610ede565b602082019050919050565b5f6020820190508181035f830152610f3f81610f06565b9050919050565b5f604082019050610f595f830185610d54565b8181036020830152610f6b8184610cee565b90509392505050565b5f8115159050919050565b610f8881610f74565b82525050565b5f604082019050610fa15f830185610f7f565b8181036020830152610fb38184610cee565b90509392505050565b7f4173736f6369617465204661696c6564000000000000000000000000000000005f82015250565b5f610ff0601083610e66565b9150610ffb82610fbc565b602082019050919050565b5f6020820190508181035f83015261101d81610fe4565b9050919050565b5f6080820190506110375f830187610d54565b6110446020830186610d54565b6110516040830185610d54565b61105e6060830184610a24565b95945050505050565b5f60408201905061107a5f830185610d54565b6110876020830184610d54565b939250505056fea2646970667358221220b950581c1a597b62116503b658d32f2a4d2d65741669dc010aa106088a19692f64736f6c634300081b0033",
			"opcodes": "PUSH1 0x80 PUSH1 0x40 MSTORE CALLVALUE DUP1 ISZERO PUSH1 0xE JUMPI PUSH0 PUSH0 REVERT JUMPDEST POP PUSH2 0x10C4 DUP1 PUSH2 0x1C PUSH0 CODECOPY PUSH0 RETURN INVALID PUSH1 0x80 PUSH1 0x40 MSTORE CALLVALUE DUP1 ISZERO PUSH2 0xF JUMPI PUSH0 PUSH0 REVERT JUMPDEST POP PUSH1 0x4 CALLDATASIZE LT PUSH2 0x60 JUMPI PUSH0 CALLDATALOAD PUSH1 0xE0 SHR DUP1 PUSH4 0x15DACBEA EQ PUSH2 0x64 JUMPI DUP1 PUSH4 0x3A04033C EQ PUSH2 0x94 JUMPI DUP1 PUSH4 0x4753B51B EQ PUSH2 0xB0 JUMPI DUP1 PUSH4 0x618DC65E EQ PUSH2 0xCC JUMPI DUP1 PUSH4 0x7F6314D0 EQ PUSH2 0xFD JUMPI DUP1 PUSH4 0x9B23D3D9 EQ PUSH2 0x119 JUMPI JUMPDEST PUSH0 PUSH0 REVERT JUMPDEST PUSH2 0x7E PUSH1 0x4 DUP1 CALLDATASIZE SUB DUP2 ADD SWAP1 PUSH2 0x79 SWAP2 SWAP1 PUSH2 0x9B4 JUMP JUMPDEST PUSH2 0x149 JUMP JUMPDEST PUSH1 0x40 MLOAD PUSH2 0x8B SWAP2 SWAP1 PUSH2 0xA33 JUMP JUMPDEST PUSH1 0x40 MLOAD DUP1 SWAP2 SUB SWAP1 RETURN JUMPDEST PUSH2 0xAE PUSH1 0x4 DUP1 CALLDATASIZE SUB DUP2 ADD SWAP1 PUSH2 0xA9 SWAP2 SWAP1 PUSH2 0xA76 JUMP JUMPDEST PUSH2 0x261 JUMP JUMPDEST STOP JUMPDEST PUSH2 0xCA PUSH1 0x4 DUP1 CALLDATASIZE SUB DUP2 ADD SWAP1 PUSH2 0xC5 SWAP2 SWAP1 PUSH2 0xADA JUMP JUMPDEST PUSH2 0x2BD JUMP JUMPDEST STOP JUMPDEST PUSH2 0xE6 PUSH1 0x4 DUP1 CALLDATASIZE SUB DUP2 ADD SWAP1 PUSH2 0xE1 SWAP2 SWAP1 PUSH2 0xC54 JUMP JUMPDEST PUSH2 0x315 JUMP JUMPDEST PUSH1 0x40 MLOAD PUSH2 0xF4 SWAP3 SWAP2 SWAP1 PUSH2 0xD26 JUMP JUMPDEST PUSH1 0x40 MLOAD DUP1 SWAP2 SUB SWAP1 RETURN JUMPDEST PUSH2 0x117 PUSH1 0x4 DUP1 CALLDATASIZE SUB DUP2 ADD SWAP1 PUSH2 0x112 SWAP2 SWAP1 PUSH2 0xADA JUMP JUMPDEST PUSH2 0x46A JUMP JUMPDEST STOP JUMPDEST PUSH2 0x133 PUSH1 0x4 DUP1 CALLDATASIZE SUB DUP2 ADD SWAP1 PUSH2 0x12E SWAP2 SWAP1 PUSH2 0x9B4 JUMP JUMPDEST PUSH2 0x4C2 JUMP JUMPDEST PUSH1 0x40 MLOAD PUSH2 0x140 SWAP2 SWAP1 PUSH2 0xA33 JUMP JUMPDEST PUSH1 0x40 MLOAD DUP1 SWAP2 SUB SWAP1 RETURN JUMPDEST PUSH0 PUSH0 PUSH0 PUSH2 0x167 PUSH20 0xFFFFFFFFFFFFFFFFFFFFFFFFFFFFFFFFFFFFFFFF AND PUSH4 0x15DACBEA PUSH1 0xE0 SHL DUP9 DUP9 DUP9 DUP9 PUSH1 0x40 MLOAD PUSH1 0x24 ADD PUSH2 0x184 SWAP5 SWAP4 SWAP3 SWAP2 SWAP1 PUSH2 0xD72 JUMP JUMPDEST PUSH1 0x40 MLOAD PUSH1 0x20 DUP2 DUP4 SUB SUB DUP2 MSTORE SWAP1 PUSH1 0x40 MSTORE SWAP1 PUSH28 0xFFFFFFFFFFFFFFFFFFFFFFFFFFFFFFFFFFFFFFFFFFFFFFFFFFFFFFFF NOT AND PUSH1 0x20 DUP3 ADD DUP1 MLOAD PUSH28 0xFFFFFFFFFFFFFFFFFFFFFFFFFFFFFFFFFFFFFFFFFFFFFFFFFFFFFFFF DUP4 DUP2 DUP4 AND OR DUP4 MSTORE POP POP POP POP PUSH1 0x40 MLOAD PUSH2 0x1EE SWAP2 SWAP1 PUSH2 0xDEF JUMP JUMPDEST PUSH0 PUSH1 0x40 MLOAD DUP1 DUP4 SUB DUP2 PUSH0 DUP7 GAS CALL SWAP2 POP POP RETURNDATASIZE DUP1 PUSH0 DUP2 EQ PUSH2 0x227 JUMPI PUSH1 0x40 MLOAD SWAP2 POP PUSH1 0x1F NOT PUSH1 0x3F RETURNDATASIZE ADD AND DUP3 ADD PUSH1 0x40 MSTORE RETURNDATASIZE DUP3 MSTORE RETURNDATASIZE PUSH0 PUSH1 0x20 DUP5 ADD RETURNDATACOPY PUSH2 0x22C JUMP JUMPDEST PUSH1 0x60 SWAP2 POP JUMPDEST POP SWAP2 POP SWAP2 POP DUP2 PUSH2 0x23D JUMPI PUSH1 0x15 PUSH2 0x252 JUMP JUMPDEST DUP1 DUP1 PUSH1 0x20 ADD SWAP1 MLOAD DUP2 ADD SWAP1 PUSH2 0x251 SWAP2 SWAP1 PUSH2 0xE3B JUMP JUMPDEST JUMPDEST PUSH1 0x3 SIGNEXTEND SWAP3 POP POP POP SWAP5 SWAP4 POP POP POP POP JUMP JUMPDEST PUSH0 PUSH2 0x26E DUP6 DUP6 DUP6 DUP6 PUSH2 0x5DA JUMP JUMPDEST SWAP1 POP PUSH1 0x16 PUSH1 0x3 SIGNEXTEND DUP2 EQ PUSH2 0x2B6 JUMPI PUSH1 0x40 MLOAD PUSH32 0x8C379A000000000000000000000000000000000000000000000000000000000 DUP2 MSTORE PUSH1 0x4 ADD PUSH2 0x2AD SWAP1 PUSH2 0xEC0 JUMP JUMPDEST PUSH1 0x40 MLOAD DUP1 SWAP2 SUB SWAP1 REVERT JUMPDEST POP POP POP POP POP JUMP JUMPDEST PUSH0 PUSH2 0x2C8 DUP4 DUP4 PUSH2 0x6F2 JUMP JUMPDEST SWAP1 POP PUSH1 0x16 PUSH1 0x3 SIGNEXTEND DUP2 EQ PUSH2 0x310 JUMPI PUSH1 0x40 MLOAD PUSH32 0x8C379A000000000000000000000000000000000000000000000000000000000 DUP2 MSTORE PUSH1 0x4 ADD PUSH2 0x307 SWAP1 PUSH2 0xF28 JUMP JUMPDEST PUSH1 0x40 MLOAD DUP1 SWAP2 SUB SWAP1 REVERT JUMPDEST POP POP POP JUMP JUMPDEST PUSH0 PUSH1 0x60 PUSH0 PUSH0 PUSH2 0x167 PUSH20 0xFFFFFFFFFFFFFFFFFFFFFFFFFFFFFFFFFFFFFFFF AND PUSH4 0x618DC65E PUSH1 0xE0 SHL DUP8 DUP8 PUSH1 0x40 MLOAD PUSH1 0x24 ADD PUSH2 0x34E SWAP3 SWAP2 SWAP1 PUSH2 0xF46 JUMP JUMPDEST PUSH1 0x40 MLOAD PUSH1 0x20 DUP2 DUP4 SUB SUB DUP2 MSTORE SWAP1 PUSH1 0x40 MSTORE SWAP1 PUSH28 0xFFFFFFFFFFFFFFFFFFFFFFFFFFFFFFFFFFFFFFFFFFFFFFFFFFFFFFFF NOT AND PUSH1 0x20 DUP3 ADD DUP1 MLOAD PUSH28 0xFFFFFFFFFFFFFFFFFFFFFFFFFFFFFFFFFFFFFFFFFFFFFFFFFFFFFFFF DUP4 DUP2 DUP4 AND OR DUP4 MSTORE POP POP POP POP PUSH1 0x40 MLOAD PUSH2 0x3B8 SWAP2 SWAP1 PUSH2 0xDEF JUMP JUMPDEST PUSH0 PUSH1 0x40 MLOAD DUP1 DUP4 SUB DUP2 PUSH0 DUP7 GAS CALL SWAP2 POP POP RETURNDATASIZE DUP1 PUSH0 DUP2 EQ PUSH2 0x3F1 JUMPI PUSH1 0x40 MLOAD SWAP2 POP PUSH1 0x1F NOT PUSH1 0x3F RETURNDATASIZE ADD AND DUP3 ADD PUSH1 0x40 MSTORE RETURNDATASIZE DUP3 MSTORE RETURNDATASIZE PUSH0 PUSH1 0x20 DUP5 ADD RETURNDATACOPY PUSH2 0x3F6 JUMP JUMPDEST PUSH1 0x60 SWAP2 POP JUMPDEST POP SWAP2 POP SWAP2 POP PUSH32 0x4AF4780E06FE8CB9DF64B0794FA6F01399AF979175BB988E35E0E57E594567BC DUP3 DUP3 PUSH1 0x40 MLOAD PUSH2 0x42C SWAP3 SWAP2 SWAP1 PUSH2 0xF8E JUMP JUMPDEST PUSH1 0x40 MLOAD DUP1 SWAP2 SUB SWAP1 LOG1 DUP2 PUSH2 0x44F JUMPI PUSH1 0x15 PUSH1 0x40 MLOAD DUP1 PUSH1 0x20 ADD PUSH1 0x40 MSTORE DUP1 PUSH0 DUP2 MSTORE POP PUSH2 0x453 JUMP JUMPDEST PUSH1 0x16 DUP2 JUMPDEST DUP2 PUSH1 0x3 SIGNEXTEND SWAP2 POP DUP1 SWAP5 POP DUP2 SWAP6 POP POP POP POP POP SWAP3 POP SWAP3 SWAP1 POP JUMP JUMPDEST PUSH0 PUSH2 0x475 DUP4 DUP4 PUSH2 0x804 JUMP JUMPDEST SWAP1 POP PUSH1 0x16 PUSH1 0x3 SIGNEXTEND DUP2 EQ PUSH2 0x4BD JUMPI PUSH1 0x40 MLOAD PUSH32 0x8C379A000000000000000000000000000000000000000000000000000000000 DUP2 MSTORE PUSH1 0x4 ADD PUSH2 0x4B4 SWAP1 PUSH2 0x1006 JUMP JUMPDEST PUSH1 0x40 MLOAD DUP1 SWAP2 SUB SWAP1 REVERT JUMPDEST POP POP POP JUMP JUMPDEST PUSH0 PUSH0 PUSH0 PUSH2 0x167 PUSH20 0xFFFFFFFFFFFFFFFFFFFFFFFFFFFFFFFFFFFFFFFF AND PUSH4 0x9B23D3D9 PUSH1 0xE0 SHL DUP9 DUP9 DUP9 DUP9 PUSH1 0x40 MLOAD PUSH1 0x24 ADD PUSH2 0x4FD SWAP5 SWAP4 SWAP3 SWAP2 SWAP1 PUSH2 0xD72 JUMP JUMPDEST PUSH1 0x40 MLOAD PUSH1 0x20 DUP2 DUP4 SUB SUB DUP2 MSTORE SWAP1 PUSH1 0x40 MSTORE SWAP1 PUSH28 0xFFFFFFFFFFFFFFFFFFFFFFFFFFFFFFFFFFFFFFFFFFFFFFFFFFFFFFFF NOT AND PUSH1 0x20 DUP3 ADD DUP1 MLOAD PUSH28 0xFFFFFFFFFFFFFFFFFFFFFFFFFFFFFFFFFFFFFFFFFFFFFFFFFFFFFFFF DUP4 DUP2 DUP4 AND OR DUP4 MSTORE POP POP POP POP PUSH1 0x40 MLOAD PUSH2 0x567 SWAP2 SWAP1 PUSH2 0xDEF JUMP JUMPDEST PUSH0 PUSH1 0x40 MLOAD DUP1 DUP4 SUB DUP2 PUSH0 DUP7 GAS CALL SWAP2 POP POP RETURNDATASIZE DUP1 PUSH0 DUP2 EQ PUSH2 0x5A0 JUMPI PUSH1 0x40 MLOAD SWAP2 POP PUSH1 0x1F NOT PUSH1 0x3F RETURNDATASIZE ADD AND DUP3 ADD PUSH1 0x40 MSTORE RETURNDATASIZE DUP3 MSTORE RETURNDATASIZE PUSH0 PUSH1 0x20 DUP5 ADD RETURNDATACOPY PUSH2 0x5A5 JUMP JUMPDEST PUSH1 0x60 SWAP2 POP JUMPDEST POP SWAP2 POP SWAP2 POP DUP2 PUSH2 0x5B6 JUMPI PUSH1 0x15 PUSH2 0x5CB JUMP JUMPDEST DUP1 DUP1 PUSH1 0x20 ADD SWAP1 MLOAD DUP2 ADD SWAP1 PUSH2 0x5CA SWAP2 SWAP1 PUSH2 0xE3B JUMP JUMPDEST JUMPDEST PUSH1 0x3 SIGNEXTEND SWAP3 POP POP POP SWAP5 SWAP4 POP POP POP POP JUMP JUMPDEST PUSH0 PUSH0 PUSH0 PUSH2 0x167 PUSH20 0xFFFFFFFFFFFFFFFFFFFFFFFFFFFFFFFFFFFFFFFF AND PUSH4 0xECA36917 PUSH1 0xE0 SHL DUP9 DUP9 DUP9 DUP9 PUSH1 0x40 MLOAD PUSH1 0x24 ADD PUSH2 0x615 SWAP5 SWAP4 SWAP3 SWAP2 SWAP1 PUSH2 0x1024 JUMP JUMPDEST PUSH1 0x40 MLOAD PUSH1 0x20 DUP2 DUP4 SUB SUB DUP2 MSTORE SWAP1 PUSH1 0x40 MSTORE SWAP1 PUSH28 0xFFFFFFFFFFFFFFFFFFFFFFFFFFFFFFFFFFFFFFFFFFFFFFFFFFFFFFFF NOT AND PUSH1 0x20 DUP3 ADD DUP1 MLOAD PUSH28 0xFFFFFFFFFFFFFFFFFFFFFFFFFFFFFFFFFFFFFFFFFFFFFFFFFFFFFFFF DUP4 DUP2 DUP4 AND OR DUP4 MSTORE POP POP POP POP PUSH1 0x40 MLOAD PUSH2 0x67F SWAP2 SWAP1 PUSH2 0xDEF JUMP JUMPDEST PUSH0 PUSH1 0x40 MLOAD DUP1 DUP4 SUB DUP2 PUSH0 DUP7 GAS CALL SWAP2 POP POP RETURNDATASIZE DUP1 PUSH0 DUP2 EQ PUSH2 0x6B8 JUMPI PUSH1 0x40 MLOAD SWAP2 POP PUSH1 0x1F NOT PUSH1 0x3F RETURNDATASIZE ADD AND DUP3 ADD PUSH1 0x40 MSTORE RETURNDATASIZE DUP3 MSTORE RETURNDATASIZE PUSH0 PUSH1 0x20 DUP5 ADD RETURNDATACOPY PUSH2 0x6BD JUMP JUMPDEST PUSH1 0x60 SWAP2 POP JUMPDEST POP SWAP2 POP SWAP2 POP DUP2 PUSH2 0x6CE JUMPI PUSH1 0x15 PUSH2 0x6E3 JUMP JUMPDEST DUP1 DUP1 PUSH1 0x20 ADD SWAP1 MLOAD DUP2 ADD SWAP1 PUSH2 0x6E2 SWAP2 SWAP1 PUSH2 0xE3B JUMP JUMPDEST JUMPDEST PUSH1 0x3 SIGNEXTEND SWAP3 POP POP POP SWAP5 SWAP4 POP POP POP POP JUMP JUMPDEST PUSH0 PUSH0 PUSH0 PUSH2 0x167 PUSH20 0xFFFFFFFFFFFFFFFFFFFFFFFFFFFFFFFFFFFFFFFF AND PUSH4 0x99794E8 PUSH1 0xE0 SHL DUP7 DUP7 PUSH1 0x40 MLOAD PUSH1 0x24 ADD PUSH2 0x729 SWAP3 SWAP2 SWAP1 PUSH2 0x1067 JUMP JUMPDEST PUSH1 0x40 MLOAD PUSH1 0x20 DUP2 DUP4 SUB SUB DUP2 MSTORE SWAP1 PUSH1 0x40 MSTORE SWAP1 PUSH28 0xFFFFFFFFFFFFFFFFFFFFFFFFFFFFFFFFFFFFFFFFFFFFFFFFFFFFFFFF NOT AND PUSH1 0x20 DUP3 ADD DUP1 MLOAD PUSH28 0xFFFFFFFFFFFFFFFFFFFFFFFFFFFFFFFFFFFFFFFFFFFFFFFFFFFFFFFF DUP4 DUP2 DUP4 AND OR DUP4 MSTORE POP POP POP POP PUSH1 0x40 MLOAD PUSH2 0x793 SWAP2 SWAP1 PUSH2 0xDEF JUMP JUMPDEST PUSH0 PUSH1 0x40 MLOAD DUP1 DUP4 SUB DUP2 PUSH0 DUP7 GAS CALL SWAP2 POP POP RETURNDATASIZE DUP1 PUSH0 DUP2 EQ PUSH2 0x7CC JUMPI PUSH1 0x40 MLOAD SWAP2 POP PUSH1 0x1F NOT PUSH1 0x3F RETURNDATASIZE ADD AND DUP3 ADD PUSH1 0x40 MSTORE RETURNDATASIZE DUP3 MSTORE RETURNDATASIZE PUSH0 PUSH1 0x20 DUP5 ADD RETURNDATACOPY PUSH2 0x7D1 JUMP JUMPDEST PUSH1 0x60 SWAP2 POP JUMPDEST POP SWAP2 POP SWAP2 POP DUP2 PUSH2 0x7E2 JUMPI PUSH1 0x15 PUSH2 0x7F7 JUMP JUMPDEST DUP1 DUP1 PUSH1 0x20 ADD SWAP1 MLOAD DUP2 ADD SWAP1 PUSH2 0x7F6 SWAP2 SWAP1 PUSH2 0xE3B JUMP JUMPDEST JUMPDEST PUSH1 0x3 SIGNEXTEND SWAP3 POP POP POP SWAP3 SWAP2 POP POP JUMP JUMPDEST PUSH0 PUSH0 PUSH0 PUSH2 0x167 PUSH20 0xFFFFFFFFFFFFFFFFFFFFFFFFFFFFFFFFFFFFFFFF AND PUSH4 0x49146BDE PUSH1 0xE0 SHL DUP7 DUP7 PUSH1 0x40 MLOAD PUSH1 0x24 ADD PUSH2 0x83B SWAP3 SWAP2 SWAP1 PUSH2 0x1067 JUMP JUMPDEST PUSH1 0x40 MLOAD PUSH1 0x20 DUP2 DUP4 SUB SUB DUP2 MSTORE SWAP1 PUSH1 0x40 MSTORE SWAP1 PUSH28 0xFFFFFFFFFFFFFFFFFFFFFFFFFFFFFFFFFFFFFFFFFFFFFFFFFFFFFFFF NOT AND PUSH1 0x20 DUP3 ADD DUP1 MLOAD PUSH28 0xFFFFFFFFFFFFFFFFFFFFFFFFFFFFFFFFFFFFFFFFFFFFFFFFFFFFFFFF DUP4 DUP2 DUP4 AND OR DUP4 MSTORE POP POP POP POP PUSH1 0x40 MLOAD PUSH2 0x8A5 SWAP2 SWAP1 PUSH2 0xDEF JUMP JUMPDEST PUSH0 PUSH1 0x40 MLOAD DUP1 DUP4 SUB DUP2 PUSH0 DUP7 GAS CALL SWAP2 POP POP RETURNDATASIZE DUP1 PUSH0 DUP2 EQ PUSH2 0x8DE JUMPI PUSH1 0x40 MLOAD SWAP2 POP PUSH1 0x1F NOT PUSH1 0x3F RETURNDATASIZE ADD AND DUP3 ADD PUSH1 0x40 MSTORE RETURNDATASIZE DUP3 MSTORE RETURNDATASIZE PUSH0 PUSH1 0x20 DUP5 ADD RETURNDATACOPY PUSH2 0x8E3 JUMP JUMPDEST PUSH1 0x60 SWAP2 POP JUMPDEST POP SWAP2 POP SWAP2 POP DUP2 PUSH2 0x8F4 JUMPI PUSH1 0x15 PUSH2 0x909 JUMP JUMPDEST DUP1 DUP1 PUSH1 0x20 ADD SWAP1 MLOAD DUP2 ADD SWAP1 PUSH2 0x908 SWAP2 SWAP1 PUSH2 0xE3B JUMP JUMPDEST JUMPDEST PUSH1 0x3 SIGNEXTEND SWAP3 POP POP POP SWAP3 SWAP2 POP POP JUMP JUMPDEST PUSH0 PUSH1 0x40 MLOAD SWAP1 POP SWAP1 JUMP JUMPDEST PUSH0 PUSH0 REVERT JUMPDEST PUSH0 PUSH0 REVERT JUMPDEST PUSH0 PUSH20 0xFFFFFFFFFFFFFFFFFFFFFFFFFFFFFFFFFFFFFFFF DUP3 AND SWAP1 POP SWAP2 SWAP1 POP JUMP JUMPDEST PUSH0 PUSH2 0x950 DUP3 PUSH2 0x927 JUMP JUMPDEST SWAP1 POP SWAP2 SWAP1 POP JUMP JUMPDEST PUSH2 0x960 DUP2 PUSH2 0x946 JUMP JUMPDEST DUP2 EQ PUSH2 0x96A JUMPI PUSH0 PUSH0 REVERT JUMPDEST POP JUMP JUMPDEST PUSH0 DUP2 CALLDATALOAD SWAP1 POP PUSH2 0x97B DUP2 PUSH2 0x957 JUMP JUMPDEST SWAP3 SWAP2 POP POP JUMP JUMPDEST PUSH0 DUP2 SWAP1 POP SWAP2 SWAP1 POP JUMP JUMPDEST PUSH2 0x993 DUP2 PUSH2 0x981 JUMP JUMPDEST DUP2 EQ PUSH2 0x99D JUMPI PUSH0 PUSH0 REVERT JUMPDEST POP JUMP JUMPDEST PUSH0 DUP2 CALLDATALOAD SWAP1 POP PUSH2 0x9AE DUP2 PUSH2 0x98A JUMP JUMPDEST SWAP3 SWAP2 POP POP JUMP JUMPDEST PUSH0 PUSH0 PUSH0 PUSH0 PUSH1 0x80 DUP6 DUP8 SUB SLT ISZERO PUSH2 0x9CC JUMPI PUSH2 0x9CB PUSH2 0x91F JUMP JUMPDEST JUMPDEST PUSH0 PUSH2 0x9D9 DUP8 DUP3 DUP9 ADD PUSH2 0x96D JUMP JUMPDEST SWAP5 POP POP PUSH1 0x20 PUSH2 0x9EA DUP8 DUP3 DUP9 ADD PUSH2 0x96D JUMP JUMPDEST SWAP4 POP POP PUSH1 0x40 PUSH2 0x9FB DUP8 DUP3 DUP9 ADD PUSH2 0x96D JUMP JUMPDEST SWAP3 POP POP PUSH1 0x60 PUSH2 0xA0C DUP8 DUP3 DUP9 ADD PUSH2 0x9A0 JUMP JUMPDEST SWAP2 POP POP SWAP3 SWAP6 SWAP2 SWAP5 POP SWAP3 POP JUMP JUMPDEST PUSH0 DUP2 PUSH1 0x7 SIGNEXTEND SWAP1 POP SWAP2 SWAP1 POP JUMP JUMPDEST PUSH2 0xA2D DUP2 PUSH2 0xA18 JUMP JUMPDEST DUP3 MSTORE POP POP JUMP JUMPDEST PUSH0 PUSH1 0x20 DUP3 ADD SWAP1 POP PUSH2 0xA46 PUSH0 DUP4 ADD DUP5 PUSH2 0xA24 JUMP JUMPDEST SWAP3 SWAP2 POP POP JUMP JUMPDEST PUSH2 0xA55 DUP2 PUSH2 0xA18 JUMP JUMPDEST DUP2 EQ PUSH2 0xA5F JUMPI PUSH0 PUSH0 REVERT JUMPDEST POP JUMP JUMPDEST PUSH0 DUP2 CALLDATALOAD SWAP1 POP PUSH2 0xA70 DUP2 PUSH2 0xA4C JUMP JUMPDEST SWAP3 SWAP2 POP POP JUMP JUMPDEST PUSH0 PUSH0 PUSH0 PUSH0 PUSH1 0x80 DUP6 DUP8 SUB SLT ISZERO PUSH2 0xA8E JUMPI PUSH2 0xA8D PUSH2 0x91F JUMP JUMPDEST JUMPDEST PUSH0 PUSH2 0xA9B DUP8 DUP3 DUP9 ADD PUSH2 0x96D JUMP JUMPDEST SWAP5 POP POP PUSH1 0x20 PUSH2 0xAAC DUP8 DUP3 DUP9 ADD PUSH2 0x96D JUMP JUMPDEST SWAP4 POP POP PUSH1 0x40 PUSH2 0xABD DUP8 DUP3 DUP9 ADD PUSH2 0x96D JUMP JUMPDEST SWAP3 POP POP PUSH1 0x60 PUSH2 0xACE DUP8 DUP3 DUP9 ADD PUSH2 0xA62 JUMP JUMPDEST SWAP2 POP POP SWAP3 SWAP6 SWAP2 SWAP5 POP SWAP3 POP JUMP JUMPDEST PUSH0 PUSH0 PUSH1 0x40 DUP4 DUP6 SUB SLT ISZERO PUSH2 0xAF0 JUMPI PUSH2 0xAEF PUSH2 0x91F JUMP JUMPDEST JUMPDEST PUSH0 PUSH2 0xAFD DUP6 DUP3 DUP7 ADD PUSH2 0x96D JUMP JUMPDEST SWAP3 POP POP PUSH1 0x20 PUSH2 0xB0E DUP6 DUP3 DUP7 ADD PUSH2 0x96D JUMP JUMPDEST SWAP2 POP POP SWAP3 POP SWAP3 SWAP1 POP JUMP JUMPDEST PUSH0 PUSH0 REVERT JUMPDEST PUSH0 PUSH0 REVERT JUMPDEST PUSH0 PUSH1 0x1F NOT PUSH1 0x1F DUP4 ADD AND SWAP1 POP SWAP2 SWAP1 POP JUMP JUMPDEST PUSH32 0x4E487B7100000000000000000000000000000000000000000000000000000000 PUSH0 MSTORE PUSH1 0x41 PUSH1 0x4 MSTORE PUSH1 0x24 PUSH0 REVERT JUMPDEST PUSH2 0xB66 DUP3 PUSH2 0xB20 JUMP JUMPDEST DUP2 ADD DUP2 DUP2 LT PUSH8 0xFFFFFFFFFFFFFFFF DUP3 GT OR ISZERO PUSH2 0xB85 JUMPI PUSH2 0xB84 PUSH2 0xB30 JUMP JUMPDEST JUMPDEST DUP1 PUSH1 0x40 MSTORE POP POP POP JUMP JUMPDEST PUSH0 PUSH2 0xB97 PUSH2 0x916 JUMP JUMPDEST SWAP1 POP PUSH2 0xBA3 DUP3 DUP3 PUSH2 0xB5D JUMP JUMPDEST SWAP2 SWAP1 POP JUMP JUMPDEST PUSH0 PUSH8 0xFFFFFFFFFFFFFFFF DUP3 GT ISZERO PUSH2 0xBC2 JUMPI PUSH2 0xBC1 PUSH2 0xB30 JUMP JUMPDEST JUMPDEST PUSH2 0xBCB DUP3 PUSH2 0xB20 JUMP JUMPDEST SWAP1 POP PUSH1 0x20 DUP2 ADD SWAP1 POP SWAP2 SWAP1 POP JUMP JUMPDEST DUP3 DUP2 DUP4 CALLDATACOPY PUSH0 DUP4 DUP4 ADD MSTORE POP POP POP JUMP JUMPDEST PUSH0 PUSH2 0xBF8 PUSH2 0xBF3 DUP5 PUSH2 0xBA8 JUMP JUMPDEST PUSH2 0xB8E JUMP JUMPDEST SWAP1 POP DUP3 DUP2 MSTORE PUSH1 0x20 DUP2 ADD DUP5 DUP5 DUP5 ADD GT ISZERO PUSH2 0xC14 JUMPI PUSH2 0xC13 PUSH2 0xB1C JUMP JUMPDEST JUMPDEST PUSH2 0xC1F DUP5 DUP3 DUP6 PUSH2 0xBD8 JUMP JUMPDEST POP SWAP4 SWAP3 POP POP POP JUMP JUMPDEST PUSH0 DUP3 PUSH1 0x1F DUP4 ADD SLT PUSH2 0xC3B JUMPI PUSH2 0xC3A PUSH2 0xB18 JUMP JUMPDEST JUMPDEST DUP2 CALLDATALOAD PUSH2 0xC4B DUP5 DUP3 PUSH1 0x20 DUP7 ADD PUSH2 0xBE6 JUMP JUMPDEST SWAP2 POP POP SWAP3 SWAP2 POP POP JUMP JUMPDEST PUSH0 PUSH0 PUSH1 0x40 DUP4 DUP6 SUB SLT ISZERO PUSH2 0xC6A JUMPI PUSH2 0xC69 PUSH2 0x91F JUMP JUMPDEST JUMPDEST PUSH0 PUSH2 0xC77 DUP6 DUP3 DUP7 ADD PUSH2 0x96D JUMP JUMPDEST SWAP3 POP POP PUSH1 0x20 DUP4 ADD CALLDATALOAD PUSH8 0xFFFFFFFFFFFFFFFF DUP2 GT ISZERO PUSH2 0xC98 JUMPI PUSH2 0xC97 PUSH2 0x923 JUMP JUMPDEST JUMPDEST PUSH2 0xCA4 DUP6 DUP3 DUP7 ADD PUSH2 0xC27 JUMP JUMPDEST SWAP2 POP POP SWAP3 POP SWAP3 SWAP1 POP JUMP JUMPDEST PUSH0 DUP2 SWAP1 POP SWAP2 SWAP1 POP JUMP JUMPDEST PUSH2 0xCC0 DUP2 PUSH2 0xCAE JUMP JUMPDEST DUP3 MSTORE POP POP JUMP JUMPDEST PUSH0 DUP2 MLOAD SWAP1 POP SWAP2 SWAP1 POP JUMP JUMPDEST PUSH0 DUP3 DUP3 MSTORE PUSH1 0x20 DUP3 ADD SWAP1 POP SWAP3 SWAP2 POP POP JUMP JUMPDEST DUP3 DUP2 DUP4 MCOPY PUSH0 DUP4 DUP4 ADD MSTORE POP POP POP JUMP JUMPDEST PUSH0 PUSH2 0xCF8 DUP3 PUSH2 0xCC6 JUMP JUMPDEST PUSH2 0xD02 DUP2 DUP6 PUSH2 0xCD0 JUMP JUMPDEST SWAP4 POP PUSH2 0xD12 DUP2 DUP6 PUSH1 0x20 DUP7 ADD PUSH2 0xCE0 JUMP JUMPDEST PUSH2 0xD1B DUP2 PUSH2 0xB20 JUMP JUMPDEST DUP5 ADD SWAP2 POP POP SWAP3 SWAP2 POP POP JUMP JUMPDEST PUSH0 PUSH1 0x40 DUP3 ADD SWAP1 POP PUSH2 0xD39 PUSH0 DUP4 ADD DUP6 PUSH2 0xCB7 JUMP JUMPDEST DUP2 DUP2 SUB PUSH1 0x20 DUP4 ADD MSTORE PUSH2 0xD4B DUP2 DUP5 PUSH2 0xCEE JUMP JUMPDEST SWAP1 POP SWAP4 SWAP3 POP POP POP JUMP JUMPDEST PUSH2 0xD5D DUP2 PUSH2 0x946 JUMP JUMPDEST DUP3 MSTORE POP POP JUMP JUMPDEST PUSH2 0xD6C DUP2 PUSH2 0x981 JUMP JUMPDEST DUP3 MSTORE POP POP JUMP JUMPDEST PUSH0 PUSH1 0x80 DUP3 ADD SWAP1 POP PUSH2 0xD85 PUSH0 DUP4 ADD DUP8 PUSH2 0xD54 JUMP JUMPDEST PUSH2 0xD92 PUSH1 0x20 DUP4 ADD DUP7 PUSH2 0xD54 JUMP JUMPDEST PUSH2 0xD9F PUSH1 0x40 DUP4 ADD DUP6 PUSH2 0xD54 JUMP JUMPDEST PUSH2 0xDAC PUSH1 0x60 DUP4 ADD DUP5 PUSH2 0xD63 JUMP JUMPDEST SWAP6 SWAP5 POP POP POP POP POP JUMP JUMPDEST PUSH0 DUP2 SWAP1 POP SWAP3 SWAP2 POP POP JUMP JUMPDEST PUSH0 PUSH2 0xDC9 DUP3 PUSH2 0xCC6 JUMP JUMPDEST PUSH2 0xDD3 DUP2 DUP6 PUSH2 0xDB5 JUMP JUMPDEST SWAP4 POP PUSH2 0xDE3 DUP2 DUP6 PUSH1 0x20 DUP7 ADD PUSH2 0xCE0 JUMP JUMPDEST DUP1 DUP5 ADD SWAP2 POP POP SWAP3 SWAP2 POP POP JUMP JUMPDEST PUSH0 PUSH2 0xDFA DUP3 DUP5 PUSH2 0xDBF JUMP JUMPDEST SWAP2 POP DUP2 SWAP1 POP SWAP3 SWAP2 POP POP JUMP JUMPDEST PUSH0 DUP2 PUSH1 0x3 SIGNEXTEND SWAP1 POP SWAP2 SWAP1 POP JUMP JUMPDEST PUSH2 0xE1A DUP2 PUSH2 0xE05 JUMP JUMPDEST DUP2 EQ PUSH2 0xE24 JUMPI PUSH0 PUSH0 REVERT JUMPDEST POP JUMP JUMPDEST PUSH0 DUP2 MLOAD SWAP1 POP PUSH2 0xE35 DUP2 PUSH2 0xE11 JUMP JUMPDEST SWAP3 SWAP2 POP POP JUMP JUMPDEST PUSH0 PUSH1 0x20 DUP3 DUP5 SUB SLT ISZERO PUSH2 0xE50 JUMPI PUSH2 0xE4F PUSH2 0x91F JUMP JUMPDEST JUMPDEST PUSH0 PUSH2 0xE5D DUP5 DUP3 DUP6 ADD PUSH2 0xE27 JUMP JUMPDEST SWAP2 POP POP SWAP3 SWAP2 POP POP JUMP JUMPDEST PUSH0 DUP3 DUP3 MSTORE PUSH1 0x20 DUP3 ADD SWAP1 POP SWAP3 SWAP2 POP POP JUMP JUMPDEST PUSH32 0x5472616E73666572204661696C65640000000000000000000000000000000000 PUSH0 DUP3 ADD MSTORE POP JUMP JUMPDEST PUSH0 PUSH2 0xEAA PUSH1 0xF DUP4 PUSH2 0xE66 JUMP JUMPDEST SWAP2 POP PUSH2 0xEB5 DUP3 PUSH2 0xE76 JUMP JUMPDEST PUSH1 0x20 DUP3 ADD SWAP1 POP SWAP2 SWAP1 POP JUMP JUMPDEST PUSH0 PUSH1 0x20 DUP3 ADD SWAP1 POP DUP2 DUP2 SUB PUSH0 DUP4 ADD MSTORE PUSH2 0xED7 DUP2 PUSH2 0xE9E JUMP JUMPDEST SWAP1 POP SWAP2 SWAP1 POP JUMP JUMPDEST PUSH32 0x446973736F6369617465204661696C6564000000000000000000000000000000 PUSH0 DUP3 ADD MSTORE POP JUMP JUMPDEST PUSH0 PUSH2 0xF12 PUSH1 0x11 DUP4 PUSH2 0xE66 JUMP JUMPDEST SWAP2 POP PUSH2 0xF1D DUP3 PUSH2 0xEDE JUMP JUMPDEST PUSH1 0x20 DUP3 ADD SWAP1 POP SWAP2 SWAP1 POP JUMP JUMPDEST PUSH0 PUSH1 0x20 DUP3 ADD SWAP1 POP DUP2 DUP2 SUB PUSH0 DUP4 ADD MSTORE PUSH2 0xF3F DUP2 PUSH2 0xF06 JUMP JUMPDEST SWAP1 POP SWAP2 SWAP1 POP JUMP JUMPDEST PUSH0 PUSH1 0x40 DUP3 ADD SWAP1 POP PUSH2 0xF59 PUSH0 DUP4 ADD DUP6 PUSH2 0xD54 JUMP JUMPDEST DUP2 DUP2 SUB PUSH1 0x20 DUP4 ADD MSTORE PUSH2 0xF6B DUP2 DUP5 PUSH2 0xCEE JUMP JUMPDEST SWAP1 POP SWAP4 SWAP3 POP POP POP JUMP JUMPDEST PUSH0 DUP2 ISZERO ISZERO SWAP1 POP SWAP2 SWAP1 POP JUMP JUMPDEST PUSH2 0xF88 DUP2 PUSH2 0xF74 JUMP JUMPDEST DUP3 MSTORE POP POP JUMP JUMPDEST PUSH0 PUSH1 0x40 DUP3 ADD SWAP1 POP PUSH2 0xFA1 PUSH0 DUP4 ADD DUP6 PUSH2 0xF7F JUMP JUMPDEST DUP2 DUP2 SUB PUSH1 0x20 DUP4 ADD MSTORE PUSH2 0xFB3 DUP2 DUP5 PUSH2 0xCEE JUMP JUMPDEST SWAP1 POP SWAP4 SWAP3 POP POP POP JUMP JUMPDEST PUSH32 0x4173736F6369617465204661696C656400000000000000000000000000000000 PUSH0 DUP3 ADD MSTORE POP JUMP JUMPDEST PUSH0 PUSH2 0xFF0 PUSH1 0x10 DUP4 PUSH2 0xE66 JUMP JUMPDEST SWAP2 POP PUSH2 0xFFB DUP3 PUSH2 0xFBC JUMP JUMPDEST PUSH1 0x20 DUP3 ADD SWAP1 POP SWAP2 SWAP1 POP JUMP JUMPDEST PUSH0 PUSH1 0x20 DUP3 ADD SWAP1 POP DUP2 DUP2 SUB PUSH0 DUP4 ADD MSTORE PUSH2 0x101D DUP2 PUSH2 0xFE4 JUMP JUMPDEST SWAP1 POP SWAP2 SWAP1 POP JUMP JUMPDEST PUSH0 PUSH1 0x80 DUP3 ADD SWAP1 POP PUSH2 0x1037 PUSH0 DUP4 ADD DUP8 PUSH2 0xD54 JUMP JUMPDEST PUSH2 0x1044 PUSH1 0x20 DUP4 ADD DUP7 PUSH2 0xD54 JUMP JUMPDEST PUSH2 0x1051 PUSH1 0x40 DUP4 ADD DUP6 PUSH2 0xD54 JUMP JUMPDEST PUSH2 0x105E PUSH1 0x60 DUP4 ADD DUP5 PUSH2 0xA24 JUMP JUMPDEST SWAP6 SWAP5 POP POP POP POP POP JUMP JUMPDEST PUSH0 PUSH1 0x40 DUP3 ADD SWAP1 POP PUSH2 0x107A PUSH0 DUP4 ADD DUP6 PUSH2 0xD54 JUMP JUMPDEST PUSH2 0x1087 PUSH1 0x20 DUP4 ADD DUP5 PUSH2 0xD54 JUMP JUMPDEST SWAP4 SWAP3 POP POP POP JUMP INVALID LOG2 PUSH5 0x6970667358 0x22 SLT KECCAK256 0xB9 POP PC SHR BYTE MSIZE PUSH28 0x62116503B658D32F2A4D2D65741669DC010AA106088A19692F64736F PUSH13 0x634300081B0033000000000000 "
		},
		"gasEstimates": {
			"creation": {
				"codeDepositCost": "858400",
				"executionCost": "894",
				"totalCost": "859294"
			},
			"external": {
				"redirectForToken(address,bytes)": "infinite",
				"tokenAssociate(address,address)": "infinite",
				"tokenDissociate(address,address)": "infinite",
				"tokenTransfer(address,address,address,int64)": "infinite",
				"transferFrom(address,address,address,uint256)": "infinite",
				"transferFromNFT(address,address,address,uint256)": "infinite"
			}
		},
		"methodIdentifiers": {
			"redirectForToken(address,bytes)": "618dc65e",
			"tokenAssociate(address,address)": "7f6314d0",
			"tokenDissociate(address,address)": "4753b51b",
			"tokenTransfer(address,address,address,int64)": "3a04033c",
			"transferFrom(address,address,address,uint256)": "15dacbea",
			"transferFromNFT(address,address,address,uint256)": "9b23d3d9"
		}
	},
	"abi": [
		{
			"anonymous": false,
			"inputs": [
				{
					"indexed": false,
					"internalType": "bool",
					"name": "",
					"type": "bool"
				},
				{
					"indexed": false,
					"internalType": "bytes",
					"name": "",
					"type": "bytes"
				}
			],
			"name": "CallResponseEvent",
			"type": "event"
		},
		{
			"inputs": [
				{
					"internalType": "address",
					"name": "token",
					"type": "address"
				},
				{
					"internalType": "bytes",
					"name": "encodedFunctionSelector",
					"type": "bytes"
				}
			],
			"name": "redirectForToken",
			"outputs": [
				{
					"internalType": "int256",
					"name": "responseCode",
					"type": "int256"
				},
				{
					"internalType": "bytes",
					"name": "response",
					"type": "bytes"
				}
			],
			"stateMutability": "nonpayable",
			"type": "function"
		},
		{
			"inputs": [
				{
					"internalType": "address",
					"name": "sender",
					"type": "address"
				},
				{
					"internalType": "address",
					"name": "tokenAddress",
					"type": "address"
				}
			],
			"name": "tokenAssociate",
			"outputs": [],
			"stateMutability": "nonpayable",
			"type": "function"
		},
		{
			"inputs": [
				{
					"internalType": "address",
					"name": "sender",
					"type": "address"
				},
				{
					"internalType": "address",
					"name": "tokenAddress",
					"type": "address"
				}
			],
			"name": "tokenDissociate",
			"outputs": [],
			"stateMutability": "nonpayable",
			"type": "function"
		},
		{
			"inputs": [
				{
					"internalType": "address",
					"name": "tokenId",
					"type": "address"
				},
				{
					"internalType": "address",
					"name": "fromAccountId",
					"type": "address"
				},
				{
					"internalType": "address",
					"name": "toAccountId",
					"type": "address"
				},
				{
					"internalType": "int64",
					"name": "tokenAmount",
					"type": "int64"
				}
			],
			"name": "tokenTransfer",
			"outputs": [],
			"stateMutability": "nonpayable",
			"type": "function"
		},
		{
			"inputs": [
				{
					"internalType": "address",
					"name": "token",
					"type": "address"
				},
				{
					"internalType": "address",
					"name": "from",
					"type": "address"
				},
				{
					"internalType": "address",
					"name": "to",
					"type": "address"
				},
				{
					"internalType": "uint256",
					"name": "amount",
					"type": "uint256"
				}
			],
			"name": "transferFrom",
			"outputs": [
				{
					"internalType": "int64",
					"name": "responseCode",
					"type": "int64"
				}
			],
			"stateMutability": "nonpayable",
			"type": "function"
		},
		{
			"inputs": [
				{
					"internalType": "address",
					"name": "token",
					"type": "address"
				},
				{
					"internalType": "address",
					"name": "from",
					"type": "address"
				},
				{
					"internalType": "address",
					"name": "to",
					"type": "address"
				},
				{
					"internalType": "uint256",
					"name": "serialNumber",
					"type": "uint256"
				}
			],
			"name": "transferFromNFT",
			"outputs": [
				{
					"internalType": "int64",
					"name": "responseCode",
					"type": "int64"
				}
			],
			"stateMutability": "nonpayable",
			"type": "function"
		}
	]
}